{
  "_format": "hh-sol-artifact-1",
  "contractName": "ChamaPool",
  "sourceName": "contracts/SavingsPool.sol",
  "abi": [
    {
      "inputs": [
        {
          "internalType": "address",
          "name": "_mgmt",
          "type": "address"
        }
      ],
      "stateMutability": "nonpayable",
      "type": "constructor"
    },
    {
      "anonymous": false,
      "inputs": [
        {
          "indexed": false,
          "internalType": "uint256",
          "name": "poolId",
          "type": "uint256"
        },
        {
          "indexed": false,
          "internalType": "address",
          "name": "participant",
          "type": "address"
        }
      ],
      "name": "JoinedPool",
      "type": "event"
    },
    {
      "anonymous": false,
      "inputs": [
        {
          "indexed": false,
          "internalType": "uint256",
          "name": "poolId",
          "type": "uint256"
        },
        {
          "indexed": false,
          "internalType": "address",
          "name": "owner",
          "type": "address"
        },
        {
          "indexed": false,
          "internalType": "string",
          "name": "name",
          "type": "string"
        },
        {
          "indexed": false,
          "internalType": "uint256",
          "name": "maxParticipants",
          "type": "uint256"
        },
        {
          "indexed": false,
          "internalType": "uint256",
          "name": "contributionPerParticipant",
          "type": "uint256"
        },
        {
          "indexed": false,
          "internalType": "uint256",
          "name": "durationPerTurn",
          "type": "uint256"
        }
      ],
      "name": "PoolCreated",
      "type": "event"
    },
    {
      "anonymous": false,
      "inputs": [
        {
          "indexed": false,
          "internalType": "uint256",
          "name": "poolId",
          "type": "uint256"
        },
        {
          "indexed": false,
          "internalType": "uint256",
          "name": "turnId",
          "type": "uint256"
        },
        {
          "indexed": false,
          "internalType": "address",
          "name": "participant",
          "type": "address"
        },
        {
          "indexed": false,
          "internalType": "uint256",
          "name": "amount",
          "type": "uint256"
        }
      ],
      "name": "TurnClaimed",
      "type": "event"
    },
    {
      "inputs": [
        {
          "internalType": "uint256",
          "name": "",
          "type": "uint256"
        },
        {
          "internalType": "address",
          "name": "",
          "type": "address"
        }
      ],
      "name": "balances",
      "outputs": [
        {
          "internalType": "uint256",
          "name": "",
          "type": "uint256"
        }
      ],
      "stateMutability": "view",
      "type": "function"
    },
    {
      "inputs": [
        {
          "internalType": "uint256",
          "name": "poolId",
          "type": "uint256"
        }
      ],
      "name": "claimTurn",
      "outputs": [],
      "stateMutability": "nonpayable",
      "type": "function"
    },
    {
      "inputs": [
        {
          "internalType": "uint256",
          "name": "_poolID",
          "type": "uint256"
        }
      ],
      "name": "contributeToPool",
      "outputs": [],
      "stateMutability": "nonpayable",
      "type": "function"
    },
    {
      "inputs": [
        {
          "internalType": "string",
          "name": "name",
          "type": "string"
        },
        {
          "internalType": "uint256",
          "name": "maxParticipants",
          "type": "uint256"
        },
        {
          "internalType": "uint256",
          "name": "contributionPerParticipant",
          "type": "uint256"
        },
        {
          "internalType": "uint256",
          "name": "durationPerTurn",
          "type": "uint256"
        },
        {
          "internalType": "bool",
          "name": "_isRestricted",
          "type": "bool"
        }
      ],
      "name": "createPool",
      "outputs": [],
      "stateMutability": "nonpayable",
      "type": "function"
    },
    {
      "inputs": [],
      "name": "getAllSavingPools",
      "outputs": [
        {
          "components": [
            {
              "internalType": "address",
              "name": "owner",
              "type": "address"
            },
            {
              "internalType": "string",
              "name": "name",
              "type": "string"
            },
            {
              "internalType": "address",
              "name": "userTurnAddress",
              "type": "address"
            },
            {
              "internalType": "uint256",
              "name": "contributionPerParticipant",
              "type": "uint256"
            },
            {
              "internalType": "uint256",
              "name": "maxParticipants",
              "type": "uint256"
            },
            {
              "internalType": "uint256",
              "name": "durationPerTurn",
              "type": "uint256"
            },
            {
              "internalType": "uint256",
              "name": "currentTurn",
              "type": "uint256"
            },
            {
              "internalType": "bool",
              "name": "active",
              "type": "bool"
            },
            {
              "internalType": "address[]",
              "name": "participants",
              "type": "address[]"
            },
            {
              "internalType": "uint256",
              "name": "_poolBalance",
              "type": "uint256"
            },
            {
              "internalType": "bool",
              "name": "isRestrictedPool",
              "type": "bool"
            },
            {
              "internalType": "uint256",
              "name": "userContibutionNumber",
              "type": "uint256"
            },
            {
              "internalType": "uint256",
              "name": "startTime",
              "type": "uint256"
            }
          ],
          "internalType": "struct ChamaPool.Pool[]",
          "name": "",
          "type": "tuple[]"
        }
      ],
      "stateMutability": "view",
      "type": "function"
    },
    {
      "inputs": [
        {
          "internalType": "address",
          "name": "ownerAddress",
          "type": "address"
        }
      ],
      "name": "getOwnerSavingPools",
      "outputs": [
        {
          "components": [
            {
              "internalType": "address",
              "name": "owner",
              "type": "address"
            },
            {
              "internalType": "string",
              "name": "name",
              "type": "string"
            },
            {
              "internalType": "address",
              "name": "userTurnAddress",
              "type": "address"
            },
            {
              "internalType": "uint256",
              "name": "contributionPerParticipant",
              "type": "uint256"
            },
            {
              "internalType": "uint256",
              "name": "maxParticipants",
              "type": "uint256"
            },
            {
              "internalType": "uint256",
              "name": "durationPerTurn",
              "type": "uint256"
            },
            {
              "internalType": "uint256",
              "name": "currentTurn",
              "type": "uint256"
            },
            {
              "internalType": "bool",
              "name": "active",
              "type": "bool"
            },
            {
              "internalType": "address[]",
              "name": "participants",
              "type": "address[]"
            },
            {
              "internalType": "uint256",
              "name": "_poolBalance",
              "type": "uint256"
            },
            {
              "internalType": "bool",
              "name": "isRestrictedPool",
              "type": "bool"
            },
            {
              "internalType": "uint256",
              "name": "userContibutionNumber",
              "type": "uint256"
            },
            {
              "internalType": "uint256",
              "name": "startTime",
              "type": "uint256"
            }
          ],
          "internalType": "struct ChamaPool.Pool[]",
          "name": "",
          "type": "tuple[]"
        }
      ],
      "stateMutability": "view",
      "type": "function"
    },
    {
      "inputs": [
        {
          "internalType": "uint256",
          "name": "poolId",
          "type": "uint256"
        }
      ],
      "name": "getTurnDetails",
      "outputs": [
        {
          "components": [
            {
              "internalType": "uint256",
              "name": "turnBal",
              "type": "uint256"
            },
            {
              "internalType": "uint256",
              "name": "endTime",
              "type": "uint256"
            },
            {
              "internalType": "address",
              "name": "currentClaimant",
              "type": "address"
            },
            {
              "internalType": "bool",
              "name": "active",
              "type": "bool"
            }
          ],
          "internalType": "struct ChamaPool.TurnDetails",
          "name": "",
          "type": "tuple"
        }
      ],
      "stateMutability": "view",
      "type": "function"
    },
    {
      "inputs": [
        {
          "internalType": "uint256",
          "name": "",
          "type": "uint256"
        },
        {
          "internalType": "address",
          "name": "",
          "type": "address"
        }
      ],
      "name": "hascontributed",
      "outputs": [
        {
          "internalType": "bool",
          "name": "",
          "type": "bool"
        }
      ],
      "stateMutability": "view",
      "type": "function"
    },
    {
      "inputs": [
        {
          "internalType": "uint256",
          "name": "poolId",
          "type": "uint256"
        }
      ],
      "name": "joinPool",
      "outputs": [],
      "stateMutability": "nonpayable",
      "type": "function"
    },
    {
      "inputs": [],
      "name": "owner",
      "outputs": [
        {
          "internalType": "address",
          "name": "",
          "type": "address"
        }
      ],
      "stateMutability": "view",
      "type": "function"
    },
    {
      "inputs": [
        {
          "internalType": "uint256",
          "name": "",
          "type": "uint256"
        }
      ],
      "name": "poolContributionbalances",
      "outputs": [
        {
          "internalType": "uint256",
          "name": "",
          "type": "uint256"
        }
      ],
      "stateMutability": "view",
      "type": "function"
    },
    {
      "inputs": [],
      "name": "poolCounter",
      "outputs": [
        {
          "internalType": "uint256",
          "name": "",
          "type": "uint256"
        }
      ],
      "stateMutability": "view",
      "type": "function"
    },
    {
      "inputs": [
        {
          "internalType": "uint256",
          "name": "",
          "type": "uint256"
        }
      ],
      "name": "poolbalances",
      "outputs": [
        {
          "internalType": "uint256",
          "name": "",
          "type": "uint256"
        }
      ],
      "stateMutability": "view",
      "type": "function"
    },
    {
      "inputs": [
        {
          "internalType": "uint256",
          "name": "",
          "type": "uint256"
        }
      ],
      "name": "pools",
      "outputs": [
        {
          "internalType": "address",
          "name": "owner",
          "type": "address"
        },
        {
          "internalType": "string",
          "name": "name",
          "type": "string"
        },
        {
          "internalType": "address",
          "name": "userTurnAddress",
          "type": "address"
        },
        {
          "internalType": "uint256",
          "name": "contributionPerParticipant",
          "type": "uint256"
        },
        {
          "internalType": "uint256",
          "name": "maxParticipants",
          "type": "uint256"
        },
        {
          "internalType": "uint256",
          "name": "durationPerTurn",
          "type": "uint256"
        },
        {
          "internalType": "uint256",
          "name": "currentTurn",
          "type": "uint256"
        },
        {
          "internalType": "bool",
          "name": "active",
          "type": "bool"
        },
        {
          "internalType": "uint256",
          "name": "_poolBalance",
          "type": "uint256"
        },
        {
          "internalType": "bool",
          "name": "isRestrictedPool",
          "type": "bool"
        },
        {
          "internalType": "uint256",
          "name": "userContibutionNumber",
          "type": "uint256"
        },
        {
          "internalType": "uint256",
          "name": "startTime",
          "type": "uint256"
        }
      ],
      "stateMutability": "view",
      "type": "function"
    },
    {
      "inputs": [
        {
          "internalType": "uint256",
          "name": "",
          "type": "uint256"
        },
        {
          "internalType": "address",
          "name": "",
          "type": "address"
        }
      ],
      "name": "totalNumberOfTurnsPerpool",
      "outputs": [
        {
          "internalType": "uint256",
          "name": "",
          "type": "uint256"
        }
      ],
      "stateMutability": "view",
      "type": "function"
    },
    {
      "inputs": [
        {
          "internalType": "uint256",
          "name": "",
          "type": "uint256"
        }
      ],
      "name": "turn",
      "outputs": [
        {
          "internalType": "uint256",
          "name": "turnBal",
          "type": "uint256"
        },
        {
          "internalType": "uint256",
          "name": "endTime",
          "type": "uint256"
        },
        {
          "internalType": "address",
          "name": "currentClaimant",
          "type": "address"
        },
        {
          "internalType": "bool",
          "name": "active",
          "type": "bool"
        }
      ],
      "stateMutability": "view",
      "type": "function"
    },
    {
      "inputs": [
        {
          "internalType": "uint256",
          "name": "_poolId",
          "type": "uint256"
        }
      ],
      "name": "withdrawDepositFromPool",
      "outputs": [],
      "stateMutability": "nonpayable",
      "type": "function"
    }
  ],
  "bytecode": "0x608060405273874069fa1eb16d44d622f2e0ca25eea172369bc1600b60006101000a81548173ffffffffffffffffffffffffffffffffffffffff021916908373ffffffffffffffffffffffffffffffffffffffff1602179055503480156200006657600080fd5b50604051620043503803806200435083398181016040528101906200008c919062000253565b600b60009054906101000a900473ffffffffffffffffffffffffffffffffffffffff16600660006101000a81548173ffffffffffffffffffffffffffffffffffffffff021916908373ffffffffffffffffffffffffffffffffffffffff160217905550600073ffffffffffffffffffffffffffffffffffffffff168173ffffffffffffffffffffffffffffffffffffffff160362000161576040517f08c379a00000000000000000000000000000000000000000000000000000000081526004016200015890620002e6565b60405180910390fd5b806000806101000a81548173ffffffffffffffffffffffffffffffffffffffff021916908373ffffffffffffffffffffffffffffffffffffffff16021790555033600160006101000a81548173ffffffffffffffffffffffffffffffffffffffff021916908373ffffffffffffffffffffffffffffffffffffffff1602179055505062000308565b600080fd5b600073ffffffffffffffffffffffffffffffffffffffff82169050919050565b60006200021b82620001ee565b9050919050565b6200022d816200020e565b81146200023957600080fd5b50565b6000815190506200024d8162000222565b92915050565b6000602082840312156200026c576200026b620001e9565b5b60006200027c848285016200023c565b91505092915050565b600082825260208201905092915050565b7f496e76616c696420436f6e747261637420416464726573730000000000000000600082015250565b6000620002ce60188362000285565b9150620002db8262000296565b602082019050919050565b600060208201905081810360008301526200030181620002bf565b9050919050565b61403880620003186000396000f3fe608060405234801561001057600080fd5b506004361061010b5760003560e01c80634d2a9c7b116100a25780639e3079cb116100715780639e3079cb146102da578063ac4afa38146102f8578063b043d7d614610333578063b6f0b6f214610366578063d3d84c4c146103845761010b565b80634d2a9c7b1461025457806383892507146102845780638da5cb5b146102a05780638e5815df146102be5761010b565b80631f320331116100de5780631f320331146101a85780632cdd3f0a146101d8578063303d49f91461020857806334e7a19f146102385761010b565b806304379f091461011057806306723c0b1461014057806310eae0c81461015c5780631213d9531461018c575b600080fd5b61012a60048036038101906101259190612a1f565b6103b4565b6040516101379190612a5b565b60405180910390f35b61015a60048036038101906101559190612a1f565b6103cc565b005b61017660048036038101906101719190612ad4565b61041c565b6040516101839190612e5b565b60405180910390f35b6101a660048036038101906101a19190612f0e565b610838565b005b6101c260048036038101906101bd9190612fa8565b610d8f565b6040516101cf9190612a5b565b60405180910390f35b6101f260048036038101906101ed9190612a1f565b610db4565b6040516101ff919061303d565b60405180910390f35b610222600480360381019061021d9190612fa8565b610eaa565b60405161022f9190613067565b60405180910390f35b610252600480360381019061024d9190612a1f565b610ed9565b005b61026e60048036038101906102699190612fa8565b61153e565b60405161027b9190612a5b565b60405180910390f35b61029e60048036038101906102999190612a1f565b611563565b005b6102a86119f7565b6040516102b59190613091565b60405180910390f35b6102d860048036038101906102d39190612a1f565b611a1d565b005b6102e2611c1b565b6040516102ef9190612a5b565b60405180910390f35b610312600480360381019061030d9190612a1f565b611c21565b60405161032a9c9b9a999897969594939291906130f6565b60405180910390f35b61034d60048036038101906103489190612a1f565b611d63565b60405161035d94939291906131b7565b60405180910390f35b61036e611dc0565b60405161037b9190612e5b565b60405180910390f35b61039e60048036038101906103999190612a1f565b6120d8565b6040516103ab9190612a5b565b60405180910390f35b60036020528060005260406000206000915090505481565b600a548110610410576040517f08c379a000000000000000000000000000000000000000000000000000000000815260040161040790613248565b60405180910390fd5b610419816120f0565b50565b60606000805b600a5481116104b6578373ffffffffffffffffffffffffffffffffffffffff166007600083815260200190815260200160002060000160009054906101000a900473ffffffffffffffffffffffffffffffffffffffff1673ffffffffffffffffffffffffffffffffffffffff16036104a357818061049f90613297565b9250505b80806104ae90613297565b915050610422565b5060008167ffffffffffffffff8111156104d3576104d26132df565b5b60405190808252806020026020018201604052801561050c57816020015b6104f9612860565b8152602001906001900390816104f15790505b5090506000805b600a54811161082c578573ffffffffffffffffffffffffffffffffffffffff166007600083815260200190815260200160002060000160009054906101000a900473ffffffffffffffffffffffffffffffffffffffff1673ffffffffffffffffffffffffffffffffffffffff16036108195760076000828152602001908152602001600020604051806101a00160405290816000820160009054906101000a900473ffffffffffffffffffffffffffffffffffffffff1673ffffffffffffffffffffffffffffffffffffffff1673ffffffffffffffffffffffffffffffffffffffff16815260200160018201805461060a9061333d565b80601f01602080910402602001604051908101604052809291908181526020018280546106369061333d565b80156106835780601f1061065857610100808354040283529160200191610683565b820191906000526020600020905b81548152906001019060200180831161066657829003601f168201915b505050505081526020016002820160009054906101000a900473ffffffffffffffffffffffffffffffffffffffff1673ffffffffffffffffffffffffffffffffffffffff1673ffffffffffffffffffffffffffffffffffffffff168152602001600382015481526020016004820154815260200160058201548152602001600682015481526020016007820160009054906101000a900460ff16151515158152602001600882018054806020026020016040519081016040528092919081815260200182805480156107aa57602002820191906000526020600020905b8160009054906101000a900473ffffffffffffffffffffffffffffffffffffffff1673ffffffffffffffffffffffffffffffffffffffff1681526020019060010190808311610760575b5050505050815260200160098201548152602001600a820160009054906101000a900460ff16151515158152602001600b8201548152602001600c820154815250508383815181106107ff576107fe61336e565b5b6020026020010181905250818061081590613297565b9250505b808061082490613297565b915050610513565b50819350505050919050565b6000841161087b576040517f08c379a00000000000000000000000000000000000000000000000000000000081526004016108729061340f565b60405180910390fd5b600083116108be576040517f08c379a00000000000000000000000000000000000000000000000000000000081526004016108b5906134a1565b60405180910390fd5b60008211610901576040517f08c379a00000000000000000000000000000000000000000000000000000000081526004016108f890613533565b60405180910390fd5b600660009054906101000a900473ffffffffffffffffffffffffffffffffffffffff1673ffffffffffffffffffffffffffffffffffffffff166323b872dd333060028761094e9190613553565b6040518463ffffffff1660e01b815260040161096c93929190613595565b6020604051808303816000875af115801561098b573d6000803e3d6000fd5b505050506040513d601f19601f820116820180604052508101906109af91906135e1565b6109ee576040517f08c379a00000000000000000000000000000000000000000000000000000000081526004016109e59061365a565b60405180910390fd5b6000600a5490506000600167ffffffffffffffff811115610a1257610a116132df565b5b604051908082528060200260200182016040528015610a405781602001602082028036833780820191505090505b5090503381600081518110610a5857610a5761336e565b5b602002602001019073ffffffffffffffffffffffffffffffffffffffff16908173ffffffffffffffffffffffffffffffffffffffff16815250506000600286610aa19190613553565b905080600360008581526020019081526020016000206000828254610ac6919061367a565b9250508190555080600460008581526020019081526020016000206000828254610af0919061367a565b92505081905550604051806101a001604052803373ffffffffffffffffffffffffffffffffffffffff1681526020018a8a8080601f016020809104026020016040519081016040528093929190818152602001838380828437600081840152601f19601f8201169050808301925050505050505081526020013373ffffffffffffffffffffffffffffffffffffffff1681526020018781526020018881526020018681526020016000815260200160001515815260200183815260200182815260200185151581526020016000815260200160008152506007600085815260200190815260200160002060008201518160000160006101000a81548173ffffffffffffffffffffffffffffffffffffffff021916908373ffffffffffffffffffffffffffffffffffffffff1602179055506020820151816001019081610c36919061385a565b5060408201518160020160006101000a81548173ffffffffffffffffffffffffffffffffffffffff021916908373ffffffffffffffffffffffffffffffffffffffff160217905550606082015181600301556080820151816004015560a0820151816005015560c0820151816006015560e08201518160070160006101000a81548160ff021916908315150217905550610100820151816008019080519060200190610ce39291906128f8565b50610120820151816009015561014082015181600a0160006101000a81548160ff02191690831515021790555061016082015181600b015561018082015181600c01559050507f80eb862b1ebf91ef46e8085c1e47b348af9ad8f1248fb18302612a57ad3a2b5583338b8b8b8b8b604051610d649796959493929190613968565b60405180910390a1600a6000815480929190610d7f90613297565b9190505550505050505050505050565b6002602052816000526040600020602052806000526040600020600091509150505481565b610dbc612982565b600a548210610e00576040517f08c379a0000000000000000000000000000000000000000000000000000000008152600401610df790613248565b60405180910390fd5b6008600083815260200190815260200160002060405180608001604052908160008201548152602001600182015481526020016002820160009054906101000a900473ffffffffffffffffffffffffffffffffffffffff1673ffffffffffffffffffffffffffffffffffffffff1673ffffffffffffffffffffffffffffffffffffffff1681526020016002820160149054906101000a900460ff1615151515815250509050919050565b60056020528160005260406000206020528060005260406000206000915091509054906101000a900460ff1681565b600a548110610f1d576040517f08c379a0000000000000000000000000000000000000000000000000000000008152600401610f1490613248565b60405180910390fd5b6000600760008381526020019081526020016000209050600015158160070160009054906101000a900460ff16151514610f8c576040517f08c379a0000000000000000000000000000000000000000000000000000000008152600401610f8390613a1e565b60405180910390fd5b600060028260030154610f9f9190613553565b90506000151560008054906101000a900473ffffffffffffffffffffffffffffffffffffffff1673ffffffffffffffffffffffffffffffffffffffff1663fe575a87336040518263ffffffff1660e01b8152600401610ffe9190613091565b602060405180830381865afa15801561101b573d6000803e3d6000fd5b505050506040513d601f19601f8201168201806040525081019061103f91906135e1565b151514611081576040517f08c379a000000000000000000000000000000000000000000000000000000000815260040161107890613ab0565b60405180910390fd5b81600a0160009054906101000a900460ff16156111ac5760008260000160009054906101000a900473ffffffffffffffffffffffffffffffffffffffff16905060008060009054906101000a900473ffffffffffffffffffffffffffffffffffffffff1673ffffffffffffffffffffffffffffffffffffffff16638af9de2d83336040518363ffffffff1660e01b815260040161111f929190613ad0565b602060405180830381865afa15801561113c573d6000803e3d6000fd5b505050506040513d601f19601f8201168201806040525081019061116091906135e1565b905060011515811515146111a9576040517f08c379a00000000000000000000000000000000000000000000000000000000081526004016111a090613b45565b60405180910390fd5b50505b600660009054906101000a900473ffffffffffffffffffffffffffffffffffffffff1673ffffffffffffffffffffffffffffffffffffffff166323b872dd3330846040518463ffffffff1660e01b815260040161120b93929190613595565b6020604051808303816000875af115801561122a573d6000803e3d6000fd5b505050506040513d601f19601f8201168201806040525081019061124e91906135e1565b5081600801339080600181540180825580915050600190039060005260206000200160009091909190916101000a81548173ffffffffffffffffffffffffffffffffffffffff021916908373ffffffffffffffffffffffffffffffffffffffff160217905550806002600085815260200190815260200160002060003373ffffffffffffffffffffffffffffffffffffffff1673ffffffffffffffffffffffffffffffffffffffff1681526020019081526020016000206000828254611314919061367a565b925050819055508060046000858152602001908152602001600020600082825461133e919061367a565b9250508190555080826009016000828254611359919061367a565b9250508190555080600360008581526020019081526020016000206000828254611383919061367a565b925050819055507ff699e742bd69bd778207e5ea6eb05fcff0f4fe72ec9832671235c1abb0a54dac83336040516113bb929190613b65565b60405180910390a181600401548260080180549050036115395760008260050154426113e7919061367a565b90506000836008018460060154815481106114055761140461336e565b5b9060005260206000200160009054906101000a900473ffffffffffffffffffffffffffffffffffffffff1690506040518060800160405280600360008881526020019081526020016000205481526020018381526020018273ffffffffffffffffffffffffffffffffffffffff1681526020016000151581525060086000878152602001908152602001600020600082015181600001556020820151816001015560408201518160020160006101000a81548173ffffffffffffffffffffffffffffffffffffffff021916908373ffffffffffffffffffffffffffffffffffffffff16021790555060608201518160020160146101000a81548160ff02191690831515021790555090505060018460070160006101000a81548160ff0219169083151502179055504284600c018190555050505b505050565b6009602052816000526040600020602052806000526040600020600091509150505481565b600a5481106115a7576040517f08c379a000000000000000000000000000000000000000000000000000000000815260040161159e90613248565b60405180910390fd5b60006007600083815260200190815260200160002090508060070160009054906101000a900460ff1661160f576040517f08c379a000000000000000000000000000000000000000000000000000000000815260040161160690613bda565b60405180910390fd5b6116198233612371565b611658576040517f08c379a000000000000000000000000000000000000000000000000000000000815260040161164f90613c6c565b60405180910390fd5b6000816008018260060154815481106116745761167361336e565b5b9060005260206000200160009054906101000a900473ffffffffffffffffffffffffffffffffffffffff1690503373ffffffffffffffffffffffffffffffffffffffff168173ffffffffffffffffffffffffffffffffffffffff161461170f576040517f08c379a000000000000000000000000000000000000000000000000000000000815260040161170690613cd8565b60405180910390fd5b816008018054905082600601540361175c576040517f08c379a000000000000000000000000000000000000000000000000000000000815260040161175390613d44565b60405180910390fd5b42600860008581526020019081526020016000206001015411156117b5576040517f08c379a00000000000000000000000000000000000000000000000000000000081526004016117ac90613db0565b60405180910390fd5b6000600460008581526020019081526020016000205460036000868152602001908152602001600020546117e99190613dd0565b9050600660009054906101000a900473ffffffffffffffffffffffffffffffffffffffff1673ffffffffffffffffffffffffffffffffffffffff1663a9059cbb33836040518363ffffffff1660e01b8152600401611848929190613e04565b6020604051808303816000875af1158015611867573d6000803e3d6000fd5b505050506040513d601f19601f8201168201806040525081019061188b91906135e1565b50806003600086815260200190815260200160002060008282546118af9190613dd0565b92505081905550808360090160008282546118ca9190613dd0565b9250508190555060018360060160008282546118e6919061367a565b92505081905550826008018360060154815481106119075761190661336e565b5b9060005260206000200160009054906101000a900473ffffffffffffffffffffffffffffffffffffffff168360020160006101000a81548173ffffffffffffffffffffffffffffffffffffffff021916908373ffffffffffffffffffffffffffffffffffffffff1602179055506000836005015442611986919061367a565b905061199385823361247e565b600184600b0160008282546119a8919061367a565b925050819055507f62d234736b0e32d7d5f88a79102f22ec145d4e518e4a9f994a925ef3d7e8d97085856006015433856040516119e89493929190613e2d565b60405180910390a15050505050565b600160009054906101000a900473ffffffffffffffffffffffffffffffffffffffff1681565b611a278133612371565b611a66576040517f08c379a0000000000000000000000000000000000000000000000000000000008152600401611a5d90613ebe565b60405180910390fd5b600060076000838152602001908152602001600020905080600801805490506009600084815260200190815260200160002060003373ffffffffffffffffffffffffffffffffffffffff1673ffffffffffffffffffffffffffffffffffffffff1681526020019081526020016000205410611b16576040517f08c379a0000000000000000000000000000000000000000000000000000000008152600401611b0d90613d44565b60405180910390fd5b6000600760008481526020019081526020016000206003015490506007600084815260200190815260200160002060060154600760008581526020019081526020016000206008018054905003611c0c57600015156005600085815260200190815260200160002060003373ffffffffffffffffffffffffffffffffffffffff1673ffffffffffffffffffffffffffffffffffffffff16815260200190815260200160002060009054906101000a900460ff16151514611c0b576040517f08c379a0000000000000000000000000000000000000000000000000000000008152600401611c0290613d44565b60405180910390fd5b5b611c168382612549565b505050565b600a5481565b60076020528060005260406000206000915090508060000160009054906101000a900473ffffffffffffffffffffffffffffffffffffffff1690806001018054611c6a9061333d565b80601f0160208091040260200160405190810160405280929190818152602001828054611c969061333d565b8015611ce35780601f10611cb857610100808354040283529160200191611ce3565b820191906000526020600020905b815481529060010190602001808311611cc657829003601f168201915b5050505050908060020160009054906101000a900473ffffffffffffffffffffffffffffffffffffffff16908060030154908060040154908060050154908060060154908060070160009054906101000a900460ff169080600901549080600a0160009054906101000a900460ff169080600b01549080600c015490508c565b60086020528060005260406000206000915090508060000154908060010154908060020160009054906101000a900473ffffffffffffffffffffffffffffffffffffffff16908060020160149054906101000a900460ff16905084565b60606000600a5467ffffffffffffffff811115611de057611ddf6132df565b5b604051908082528060200260200182016040528015611e1957816020015b611e06612860565b815260200190600190039081611dfe5790505b5090506000600190505b600a5481116120d05760076000828152602001908152602001600020604051806101a00160405290816000820160009054906101000a900473ffffffffffffffffffffffffffffffffffffffff1673ffffffffffffffffffffffffffffffffffffffff1673ffffffffffffffffffffffffffffffffffffffff168152602001600182018054611eb19061333d565b80601f0160208091040260200160405190810160405280929190818152602001828054611edd9061333d565b8015611f2a5780601f10611eff57610100808354040283529160200191611f2a565b820191906000526020600020905b815481529060010190602001808311611f0d57829003601f168201915b505050505081526020016002820160009054906101000a900473ffffffffffffffffffffffffffffffffffffffff1673ffffffffffffffffffffffffffffffffffffffff1673ffffffffffffffffffffffffffffffffffffffff168152602001600382015481526020016004820154815260200160058201548152602001600682015481526020016007820160009054906101000a900460ff161515151581526020016008820180548060200260200160405190810160405280929190818152602001828054801561205157602002820191906000526020600020905b8160009054906101000a900473ffffffffffffffffffffffffffffffffffffffff1673ffffffffffffffffffffffffffffffffffffffff1681526020019060010190808311612007575b5050505050815260200160098201548152602001600a820160009054906101000a900460ff16151515158152602001600b8201548152602001600c82015481525050826001836120a19190613dd0565b815181106120b2576120b161336e565b5b602002602001018190525080806120c890613297565b915050611e23565b508091505090565b60046020528060005260406000206000915090505481565b60036000828152602001908152602001600020546007600083815260200190815260200160002060090154111561215c576040517f08c379a000000000000000000000000000000000000000000000000000000000815260040161215390613f2a565b60405180910390fd5b60005b60076000838152602001908152602001600020600801805490508110156123385760006007600084815260200190815260200160002060080182815481106121aa576121a961336e565b5b9060005260206000200160009054906101000a900473ffffffffffffffffffffffffffffffffffffffff16905060006002600085815260200190815260200160002060008373ffffffffffffffffffffffffffffffffffffffff1673ffffffffffffffffffffffffffffffffffffffff168152602001908152602001600020549050600660009054906101000a900473ffffffffffffffffffffffffffffffffffffffff1673ffffffffffffffffffffffffffffffffffffffff1663a9059cbb33836040518363ffffffff1660e01b8152600401612289929190613e04565b6020604051808303816000875af11580156122a8573d6000803e3d6000fd5b505050506040513d601f19601f820116820180604052508101906122cc91906135e1565b5060006002600086815260200190815260200160002060008473ffffffffffffffffffffffffffffffffffffffff1673ffffffffffffffffffffffffffffffffffffffff168152602001908152602001600020819055505050808061233090613297565b91505061215f565b50600060076000838152602001908152602001600020600901819055506000600360008381526020019081526020016000208190555050565b6000600a5483106123b7576040517f08c379a00000000000000000000000000000000000000000000000000000000081526004016123ae90613248565b60405180910390fd5b600060076000858152602001908152602001600020905060005b8160080180549050811015612471578373ffffffffffffffffffffffffffffffffffffffff1682600801828154811061240d5761240c61336e565b5b9060005260206000200160009054906101000a900473ffffffffffffffffffffffffffffffffffffffff1673ffffffffffffffffffffffffffffffffffffffff160361245e57600192505050612478565b808061246990613297565b9150506123d1565b5060009150505b92915050565b60006002600085815260200190815260200160002060003373ffffffffffffffffffffffffffffffffffffffff1673ffffffffffffffffffffffffffffffffffffffff16815260200190815260200160002081905550816008600085815260200190815260200160002060010181905550806008600085815260200190815260200160002060020160006101000a81548173ffffffffffffffffffffffffffffffffffffffff021916908373ffffffffffffffffffffffffffffffffffffffff160217905550505050565b600a54821061258d576040517f08c379a000000000000000000000000000000000000000000000000000000000815260040161258490613248565b60405180910390fd5b60006007600084815260200190815260200160002090508060070160009054906101000a900460ff166125f5576040517f08c379a00000000000000000000000000000000000000000000000000000000081526004016125ec90613bda565b60405180910390fd5b8060030154821461263b576040517f08c379a000000000000000000000000000000000000000000000000000000000815260040161263290613fe2565b60405180910390fd5b600660009054906101000a900473ffffffffffffffffffffffffffffffffffffffff1673ffffffffffffffffffffffffffffffffffffffff166323b872dd3330856040518463ffffffff1660e01b815260040161269a93929190613595565b6020604051808303816000875af11580156126b9573d6000803e3d6000fd5b505050506040513d601f19601f820116820180604052508101906126dd91906135e1565b50816002600085815260200190815260200160002060003373ffffffffffffffffffffffffffffffffffffffff1673ffffffffffffffffffffffffffffffffffffffff168152602001908152602001600020600082825461273e919061367a565b9250508190555081600360008581526020019081526020016000206000828254612768919061367a565b9250508190555081816009016000828254612783919061367a565b9250508190555060016005600085815260200190815260200160002060003373ffffffffffffffffffffffffffffffffffffffff1673ffffffffffffffffffffffffffffffffffffffff16815260200190815260200160002060006101000a81548160ff02191690831515021790555060016009600085815260200190815260200160002060003373ffffffffffffffffffffffffffffffffffffffff1673ffffffffffffffffffffffffffffffffffffffff1681526020019081526020016000206000828254612854919061367a565b92505081905550505050565b604051806101a00160405280600073ffffffffffffffffffffffffffffffffffffffff16815260200160608152602001600073ffffffffffffffffffffffffffffffffffffffff16815260200160008152602001600081526020016000815260200160008152602001600015158152602001606081526020016000815260200160001515815260200160008152602001600081525090565b828054828255906000526020600020908101928215612971579160200282015b828111156129705782518260006101000a81548173ffffffffffffffffffffffffffffffffffffffff021916908373ffffffffffffffffffffffffffffffffffffffff16021790555091602001919060010190612918565b5b50905061297e91906129c2565b5090565b60405180608001604052806000815260200160008152602001600073ffffffffffffffffffffffffffffffffffffffff1681526020016000151581525090565b5b808211156129db5760008160009055506001016129c3565b5090565b600080fd5b600080fd5b6000819050919050565b6129fc816129e9565b8114612a0757600080fd5b50565b600081359050612a19816129f3565b92915050565b600060208284031215612a3557612a346129df565b5b6000612a4384828501612a0a565b91505092915050565b612a55816129e9565b82525050565b6000602082019050612a706000830184612a4c565b92915050565b600073ffffffffffffffffffffffffffffffffffffffff82169050919050565b6000612aa182612a76565b9050919050565b612ab181612a96565b8114612abc57600080fd5b50565b600081359050612ace81612aa8565b92915050565b600060208284031215612aea57612ae96129df565b5b6000612af884828501612abf565b91505092915050565b600081519050919050565b600082825260208201905092915050565b6000819050602082019050919050565b612b3681612a96565b82525050565b600081519050919050565b600082825260208201905092915050565b60005b83811015612b76578082015181840152602081019050612b5b565b60008484015250505050565b6000601f19601f8301169050919050565b6000612b9e82612b3c565b612ba88185612b47565b9350612bb8818560208601612b58565b612bc181612b82565b840191505092915050565b612bd5816129e9565b82525050565b60008115159050919050565b612bf081612bdb565b82525050565b600081519050919050565b600082825260208201905092915050565b6000819050602082019050919050565b6000612c2e8383612b2d565b60208301905092915050565b6000602082019050919050565b6000612c5282612bf6565b612c5c8185612c01565b9350612c6783612c12565b8060005b83811015612c98578151612c7f8882612c22565b9750612c8a83612c3a565b925050600181019050612c6b565b5085935050505092915050565b60006101a083016000830151612cbe6000860182612b2d565b5060208301518482036020860152612cd68282612b93565b9150506040830151612ceb6040860182612b2d565b506060830151612cfe6060860182612bcc565b506080830151612d116080860182612bcc565b5060a0830151612d2460a0860182612bcc565b5060c0830151612d3760c0860182612bcc565b5060e0830151612d4a60e0860182612be7565b50610100830151848203610100860152612d648282612c47565b915050610120830151612d7b610120860182612bcc565b50610140830151612d90610140860182612be7565b50610160830151612da5610160860182612bcc565b50610180830151612dba610180860182612bcc565b508091505092915050565b6000612dd18383612ca5565b905092915050565b6000602082019050919050565b6000612df182612b01565b612dfb8185612b0c565b935083602082028501612e0d85612b1d565b8060005b85811015612e495784840389528151612e2a8582612dc5565b9450612e3583612dd9565b925060208a01995050600181019050612e11565b50829750879550505050505092915050565b60006020820190508181036000830152612e758184612de6565b905092915050565b600080fd5b600080fd5b600080fd5b60008083601f840112612ea257612ea1612e7d565b5b8235905067ffffffffffffffff811115612ebf57612ebe612e82565b5b602083019150836001820283011115612edb57612eda612e87565b5b9250929050565b612eeb81612bdb565b8114612ef657600080fd5b50565b600081359050612f0881612ee2565b92915050565b60008060008060008060a08789031215612f2b57612f2a6129df565b5b600087013567ffffffffffffffff811115612f4957612f486129e4565b5b612f5589828a01612e8c565b96509650506020612f6889828a01612a0a565b9450506040612f7989828a01612a0a565b9350506060612f8a89828a01612a0a565b9250506080612f9b89828a01612ef9565b9150509295509295509295565b60008060408385031215612fbf57612fbe6129df565b5b6000612fcd85828601612a0a565b9250506020612fde85828601612abf565b9150509250929050565b608082016000820151612ffe6000850182612bcc565b5060208201516130116020850182612bcc565b5060408201516130246040850182612b2d565b5060608201516130376060850182612be7565b50505050565b60006080820190506130526000830184612fe8565b92915050565b61306181612bdb565b82525050565b600060208201905061307c6000830184613058565b92915050565b61308b81612a96565b82525050565b60006020820190506130a66000830184613082565b92915050565b600082825260208201905092915050565b60006130c882612b3c565b6130d281856130ac565b93506130e2818560208601612b58565b6130eb81612b82565b840191505092915050565b60006101808201905061310c600083018f613082565b818103602083015261311e818e6130bd565b905061312d604083018d613082565b61313a606083018c612a4c565b613147608083018b612a4c565b61315460a083018a612a4c565b61316160c0830189612a4c565b61316e60e0830188613058565b61317c610100830187612a4c565b61318a610120830186613058565b613198610140830185612a4c565b6131a6610160830184612a4c565b9d9c50505050505050505050505050565b60006080820190506131cc6000830187612a4c565b6131d96020830186612a4c565b6131e66040830185613082565b6131f36060830184613058565b95945050505050565b7f496e76616c696420706f6f6c2049440000000000000000000000000000000000600082015250565b6000613232600f836130ac565b915061323d826131fc565b602082019050919050565b6000602082019050818103600083015261326181613225565b9050919050565b7f4e487b7100000000000000000000000000000000000000000000000000000000600052601160045260246000fd5b60006132a2826129e9565b91507fffffffffffffffffffffffffffffffffffffffffffffffffffffffffffffffff82036132d4576132d3613268565b5b600182019050919050565b7f4e487b7100000000000000000000000000000000000000000000000000000000600052604160045260246000fd5b7f4e487b7100000000000000000000000000000000000000000000000000000000600052602260045260246000fd5b6000600282049050600182168061335557607f821691505b6020821081036133685761336761330e565b5b50919050565b7f4e487b7100000000000000000000000000000000000000000000000000000000600052603260045260246000fd5b7f4d6178207061727469636970616e7473206d757374206265206772656174657260008201527f207468616e203000000000000000000000000000000000000000000000000000602082015250565b60006133f96027836130ac565b91506134048261339d565b604082019050919050565b60006020820190508181036000830152613428816133ec565b9050919050565b7f436f6e747269627574696f6e20706572207061727469636970616e74206d757360008201527f742062652067726561746572207468616e203000000000000000000000000000602082015250565b600061348b6033836130ac565b91506134968261342f565b604082019050919050565b600060208201905081810360008301526134ba8161347e565b9050919050565b7f4475726174696f6e20706572207475726e206d7573742062652067726561746560008201527f72207468616e2030000000000000000000000000000000000000000000000000602082015250565b600061351d6028836130ac565b9150613528826134c1565b604082019050919050565b6000602082019050818103600083015261354c81613510565b9050919050565b600061355e826129e9565b9150613569836129e9565b9250828202613577816129e9565b9150828204841483151761358e5761358d613268565b5b5092915050565b60006060820190506135aa6000830186613082565b6135b76020830185613082565b6135c46040830184612a4c565b949350505050565b6000815190506135db81612ee2565b92915050565b6000602082840312156135f7576135f66129df565b5b6000613605848285016135cc565b91505092915050565b7f546f7020557020596f7572206163636f756e7400000000000000000000000000600082015250565b60006136446013836130ac565b915061364f8261360e565b602082019050919050565b6000602082019050818103600083015261367381613637565b9050919050565b6000613685826129e9565b9150613690836129e9565b92508282019050808211156136a8576136a7613268565b5b92915050565b60008190508160005260206000209050919050565b60006020601f8301049050919050565b600082821b905092915050565b6000600883026137107fffffffffffffffffffffffffffffffffffffffffffffffffffffffffffffffff826136d3565b61371a86836136d3565b95508019841693508086168417925050509392505050565b6000819050919050565b600061375761375261374d846129e9565b613732565b6129e9565b9050919050565b6000819050919050565b6137718361373c565b61378561377d8261375e565b8484546136e0565b825550505050565b600090565b61379a61378d565b6137a5818484613768565b505050565b5b818110156137c9576137be600082613792565b6001810190506137ab565b5050565b601f82111561380e576137df816136ae565b6137e8846136c3565b810160208510156137f7578190505b61380b613803856136c3565b8301826137aa565b50505b505050565b600082821c905092915050565b600061383160001984600802613813565b1980831691505092915050565b600061384a8383613820565b9150826002028217905092915050565b61386382612b3c565b67ffffffffffffffff81111561387c5761387b6132df565b5b613886825461333d565b6138918282856137cd565b600060209050601f8311600181146138c457600084156138b2578287015190505b6138bc858261383e565b865550613924565b601f1984166138d2866136ae565b60005b828110156138fa578489015182556001820191506020850194506020810190506138d5565b868310156139175784890151613913601f891682613820565b8355505b6001600288020188555050505b505050505050565b82818337600083830152505050565b600061394783856130ac565b935061395483858461392c565b61395d83612b82565b840190509392505050565b600060c08201905061397d600083018a612a4c565b61398a6020830189613082565b818103604083015261399d81878961393b565b90506139ac6060830186612a4c565b6139b96080830185612a4c565b6139c660a0830184612a4c565b98975050505050505050565b7f506f6f6c20697320616c72656164792061637469766500000000000000000000600082015250565b6000613a086016836130ac565b9150613a13826139d2565b602082019050919050565b60006020820190508181036000830152613a37816139fb565b9050919050565b7f596f752061726520626c61636b6c69737465642066726f6d2074686520706f6f60008201527f6c20666f722064656661756c74696e6700000000000000000000000000000000602082015250565b6000613a9a6030836130ac565b9150613aa582613a3e565b604082019050919050565b60006020820190508181036000830152613ac981613a8d565b9050919050565b6000604082019050613ae56000830185613082565b613af26020830184613082565b9392505050565b7f596f7520617265206e6f7420616c6c6f77656420696e207468697320706f6f6c600082015250565b6000613b2f6020836130ac565b9150613b3a82613af9565b602082019050919050565b60006020820190508181036000830152613b5e81613b22565b9050919050565b6000604082019050613b7a6000830185612a4c565b613b876020830184613082565b9392505050565b7f506f6f6c206973206e6f74206163746976650000000000000000000000000000600082015250565b6000613bc46012836130ac565b9150613bcf82613b8e565b602082019050919050565b60006020820190508181036000830152613bf381613bb7565b9050919050565b7f596f7520617265206e6f742061207061727469636970616e74206f662074686960008201527f7320706f6f6c0000000000000000000000000000000000000000000000000000602082015250565b6000613c566026836130ac565b9150613c6182613bfa565b604082019050919050565b60006020820190508181036000830152613c8581613c49565b9050919050565b7f49742773206e6f7420796f7572207475726e20746f20636c61696d0000000000600082015250565b6000613cc2601b836130ac565b9150613ccd82613c8c565b602082019050919050565b60006020820190508181036000830152613cf181613cb5565b9050919050565b7f646f6e6520776974682074686520726f756e6400000000000000000000000000600082015250565b6000613d2e6013836130ac565b9150613d3982613cf8565b602082019050919050565b60006020820190508181036000830152613d5d81613d21565b9050919050565b7f77616974666f72207475726e20746f20656e6400000000000000000000000000600082015250565b6000613d9a6013836130ac565b9150613da582613d64565b602082019050919050565b60006020820190508181036000830152613dc981613d8d565b9050919050565b6000613ddb826129e9565b9150613de6836129e9565b9250828203905081811115613dfe57613dfd613268565b5b92915050565b6000604082019050613e196000830185613082565b613e266020830184612a4c565b9392505050565b6000608082019050613e426000830187612a4c565b613e4f6020830186612a4c565b613e5c6040830185613082565b613e696060830184612a4c565b95945050505050565b7f4e6f742061207061727469636970616e7420696e207468697320706f6f6c0000600082015250565b6000613ea8601e836130ac565b9150613eb382613e72565b602082019050919050565b60006020820190508181036000830152613ed781613e9b565b9050919050565b7f6e6f7420616c6c206861766520636c61696d6564000000000000000000000000600082015250565b6000613f146014836130ac565b9150613f1f82613ede565b602082019050919050565b60006020820190508181036000830152613f4381613f07565b9050919050565b7f436f6e747269627574696f6e20616d6f756e74206d757374206d61746368207460008201527f68652073706563696669656420616d6f756e742070657220706172746963697060208201527f616e740000000000000000000000000000000000000000000000000000000000604082015250565b6000613fcc6043836130ac565b9150613fd782613f4a565b606082019050919050565b60006020820190508181036000830152613ffb81613fbf565b905091905056fea2646970667358221220089154f05a50439ab43058e235c3a9d87f28eade3a0d36ab03647c46f33f55e364736f6c63430008130033",
  "linkReferences": {},
  "deployedLinkReferences": {}
}