{
  "_format": "hh-sol-artifact-1",
  "contractName": "ManagementContract",
  "sourceName": "contracts/Management.sol",
  "abi": [
    {
      "inputs": [],
      "stateMutability": "nonpayable",
      "type": "constructor"
    },
    {
      "inputs": [
        {
          "internalType": "address",
          "name": "_owner",
          "type": "address"
        },
        {
          "internalType": "address",
          "name": "_joiner",
          "type": "address"
        }
      ],
      "name": "_checkStatus",
      "outputs": [
        {
          "internalType": "bool",
          "name": "",
          "type": "bool"
        }
      ],
      "stateMutability": "view",
      "type": "function"
    },
    {
      "inputs": [
        {
          "internalType": "address",
          "name": "_address",
          "type": "address"
        }
      ],
      "name": "blacklistAddress",
      "outputs": [],
      "stateMutability": "nonpayable",
      "type": "function"
    },
    {
      "inputs": [
        {
          "internalType": "address",
          "name": "",
          "type": "address"
        }
      ],
      "name": "blacklistedRedemption",
      "outputs": [
        {
          "internalType": "address",
          "name": "subject",
          "type": "address"
        },
        {
          "internalType": "uint8",
          "name": "votesFor",
          "type": "uint8"
        },
        {
          "internalType": "uint8",
          "name": "votesAgainst",
          "type": "uint8"
        }
      ],
      "stateMutability": "view",
      "type": "function"
    },
    {
      "inputs": [
        {
          "internalType": "address",
          "name": "",
          "type": "address"
        }
      ],
      "name": "isBlacklisted",
      "outputs": [
        {
          "internalType": "bool",
          "name": "",
          "type": "bool"
        }
      ],
      "stateMutability": "view",
      "type": "function"
    },
    {
      "inputs": [
        {
          "internalType": "address",
          "name": "",
          "type": "address"
        }
      ],
      "name": "isPanel",
      "outputs": [
        {
          "internalType": "bool",
          "name": "",
          "type": "bool"
        }
      ],
      "stateMutability": "view",
      "type": "function"
    },
    {
      "inputs": [],
      "name": "owner",
      "outputs": [
        {
          "internalType": "address",
          "name": "",
          "type": "address"
        }
      ],
      "stateMutability": "view",
      "type": "function"
    },
    {
      "inputs": [
        {
          "internalType": "uint256",
          "name": "",
          "type": "uint256"
        }
      ],
      "name": "panel",
      "outputs": [
        {
          "internalType": "address",
          "name": "",
          "type": "address"
        }
      ],
      "stateMutability": "view",
      "type": "function"
    },
    {
      "inputs": [
        {
          "internalType": "address",
          "name": "_address",
          "type": "address"
        },
        {
          "internalType": "bool",
          "name": "_vote",
          "type": "bool"
        }
      ],
      "name": "reinstateBlacklistedUser",
      "outputs": [],
      "stateMutability": "nonpayable",
      "type": "function"
    },
    {
      "inputs": [
        {
          "internalType": "address",
          "name": "_address",
          "type": "address"
        }
      ],
      "name": "selectManagementVoter",
      "outputs": [],
      "stateMutability": "nonpayable",
      "type": "function"
    },
    {
      "inputs": [
        {
          "internalType": "address[]",
          "name": "_addresses",
          "type": "address[]"
        }
      ],
      "name": "setBatchFriendlies",
      "outputs": [],
      "stateMutability": "nonpayable",
      "type": "function"
    },
    {
      "inputs": [
        {
          "internalType": "address",
          "name": "_address",
          "type": "address"
        }
      ],
      "name": "setFriendly",
      "outputs": [],
      "stateMutability": "nonpayable",
      "type": "function"
    },
    {
      "inputs": [
        {
          "internalType": "address",
          "name": "",
          "type": "address"
        },
        {
          "internalType": "address",
          "name": "",
          "type": "address"
        }
      ],
      "name": "userFriendlies",
      "outputs": [
        {
          "internalType": "bool",
          "name": "",
          "type": "bool"
        }
      ],
      "stateMutability": "view",
      "type": "function"
    }
  ],
  "bytecode": "0x608060405234801561001057600080fd5b50336000806101000a81548173ffffffffffffffffffffffffffffffffffffffff021916908373ffffffffffffffffffffffffffffffffffffffff1602179055506117e2806100606000396000f3fe608060405234801561001057600080fd5b50600436106100b45760003560e01c8063ebbce65211610071578063ebbce6521461019f578063f032e36d146101d1578063f3290d7514610201578063f61570b21461021d578063f7e4bf5a14610239578063fe575a8714610255576100b4565b806311dc8741146100b957806352e8f9ee146100d557806386258489146100f15780638af9de2d146101215780638da5cb5b14610151578063aa07bd091461016f575b600080fd5b6100d360048036038101906100ce9190611028565b610285565b005b6100ef60048036038101906100ea9190611068565b6105d2565b005b61010b60048036038101906101069190611068565b6107d5565b60405161011891906110a4565b60405180910390f35b61013b600480360381019061013691906110bf565b6107f5565b60405161014891906110a4565b60405180910390f35b610159610931565b604051610166919061110e565b60405180910390f35b6101896004803603810190610184919061115f565b610955565b604051610196919061110e565b60405180910390f35b6101b960048036038101906101b49190611068565b610994565b6040516101c8939291906111a8565b60405180910390f35b6101eb60048036038101906101e691906110bf565b6109f8565b6040516101f891906110a4565b60405180910390f35b61021b60048036038101906102169190611068565b610a27565b005b61023760048036038101906102329190611068565b610b7e565b005b610253600480360381019061024e9190611244565b610d4f565b005b61026f600480360381019061026a9190611068565b610f68565b60405161027c91906110a4565b60405180910390f35b600073ffffffffffffffffffffffffffffffffffffffff168273ffffffffffffffffffffffffffffffffffffffff16036102f4576040517f08c379a00000000000000000000000000000000000000000000000000000000081526004016102eb906112ee565b60405180910390fd5b600260003373ffffffffffffffffffffffffffffffffffffffff1673ffffffffffffffffffffffffffffffffffffffff16815260200190815260200160002060009054906101000a900460ff16610380576040517f08c379a00000000000000000000000000000000000000000000000000000000081526004016103779061135a565b60405180910390fd5b6000600360008473ffffffffffffffffffffffffffffffffffffffff1673ffffffffffffffffffffffffffffffffffffffff168152602001908152602001600020905060011515821515036104685780600001601481819054906101000a900460ff16809291906103f0906113a9565b91906101000a81548160ff021916908360ff1602179055505060018160010160003373ffffffffffffffffffffffffffffffffffffffff1673ffffffffffffffffffffffffffffffffffffffff16815260200190815260200160002060006101000a81548160ff0219169083151502179055506104fd565b80600001601581819054906101000a900460ff1680929190610489906113a9565b91906101000a81548160ff021916908360ff1602179055505060018160010160003373ffffffffffffffffffffffffffffffffffffffff1673ffffffffffffffffffffffffffffffffffffffff16815260200190815260200160002060006101000a81548160ff0219169083151502179055505b60008160000160159054906101000a900460ff168260000160149054906101000a900460ff1661052d91906113d2565b60ff16905060018054905081036105cc57603c6064828460000160149054906101000a900460ff1660ff166105629190611436565b61056c9190611467565b11156105cb576000600460008673ffffffffffffffffffffffffffffffffffffffff1673ffffffffffffffffffffffffffffffffffffffff16815260200190815260200160002060006101000a81548160ff0219169083151502179055505b5b50505050565b60008054906101000a900473ffffffffffffffffffffffffffffffffffffffff1673ffffffffffffffffffffffffffffffffffffffff163373ffffffffffffffffffffffffffffffffffffffff1614610660576040517f08c379a0000000000000000000000000000000000000000000000000000000008152600401610657906114f5565b60405180910390fd5b600073ffffffffffffffffffffffffffffffffffffffff168173ffffffffffffffffffffffffffffffffffffffff16036106cf576040517f08c379a00000000000000000000000000000000000000000000000000000000081526004016106c6906112ee565b60405180910390fd5b600a60018054905010610717576040517f08c379a000000000000000000000000000000000000000000000000000000000815260040161070e90611561565b60405180910390fd5b6001819080600181540180825580915050600190039060005260206000200160009091909190916101000a81548173ffffffffffffffffffffffffffffffffffffffff021916908373ffffffffffffffffffffffffffffffffffffffff1602179055506001600260008373ffffffffffffffffffffffffffffffffffffffff1673ffffffffffffffffffffffffffffffffffffffff16815260200190815260200160002060006101000a81548160ff02191690831515021790555050565b60026020528060005260406000206000915054906101000a900460ff1681565b60008073ffffffffffffffffffffffffffffffffffffffff168373ffffffffffffffffffffffffffffffffffffffff16141580156108605750600073ffffffffffffffffffffffffffffffffffffffff168273ffffffffffffffffffffffffffffffffffffffff1614155b61089f576040517f08c379a0000000000000000000000000000000000000000000000000000000008152600401610896906112ee565b60405180910390fd5b600560008473ffffffffffffffffffffffffffffffffffffffff1673ffffffffffffffffffffffffffffffffffffffff16815260200190815260200160002060008373ffffffffffffffffffffffffffffffffffffffff1673ffffffffffffffffffffffffffffffffffffffff16815260200190815260200160002060009054906101000a900460ff16905092915050565b60008054906101000a900473ffffffffffffffffffffffffffffffffffffffff1681565b6001818154811061096557600080fd5b906000526020600020016000915054906101000a900473ffffffffffffffffffffffffffffffffffffffff1681565b60036020528060005260406000206000915090508060000160009054906101000a900473ffffffffffffffffffffffffffffffffffffffff16908060000160149054906101000a900460ff16908060000160159054906101000a900460ff16905083565b60056020528160005260406000206020528060005260406000206000915091509054906101000a900460ff1681565b600073ffffffffffffffffffffffffffffffffffffffff168173ffffffffffffffffffffffffffffffffffffffff1603610a96576040517f08c379a0000000000000000000000000000000000000000000000000000000008152600401610a8d906112ee565b60405180910390fd5b600460008273ffffffffffffffffffffffffffffffffffffffff1673ffffffffffffffffffffffffffffffffffffffff16815260200190815260200160002060009054906101000a900460ff1615610b23576040517f08c379a0000000000000000000000000000000000000000000000000000000008152600401610b1a906115f3565b60405180910390fd5b6001600460008373ffffffffffffffffffffffffffffffffffffffff1673ffffffffffffffffffffffffffffffffffffffff16815260200190815260200160002060006101000a81548160ff02191690831515021790555050565b600073ffffffffffffffffffffffffffffffffffffffff168173ffffffffffffffffffffffffffffffffffffffff1603610bed576040517f08c379a0000000000000000000000000000000000000000000000000000000008152600401610be4906112ee565b60405180910390fd5b600560003373ffffffffffffffffffffffffffffffffffffffff1673ffffffffffffffffffffffffffffffffffffffff16815260200190815260200160002060008273ffffffffffffffffffffffffffffffffffffffff1673ffffffffffffffffffffffffffffffffffffffff16815260200190815260200160002060009054906101000a900460ff1615610cb7576040517f08c379a0000000000000000000000000000000000000000000000000000000008152600401610cae9061165f565b60405180910390fd5b6001600560003373ffffffffffffffffffffffffffffffffffffffff1673ffffffffffffffffffffffffffffffffffffffff16815260200190815260200160002060008373ffffffffffffffffffffffffffffffffffffffff1673ffffffffffffffffffffffffffffffffffffffff16815260200190815260200160002060006101000a81548160ff02191690831515021790555050565b600082829050905060005b81811015610f62576000848483818110610d7757610d7661167f565b5b9050602002016020810190610d8c9190611068565b9050600073ffffffffffffffffffffffffffffffffffffffff168173ffffffffffffffffffffffffffffffffffffffff1603610dfd576040517f08c379a0000000000000000000000000000000000000000000000000000000008152600401610df4906116fa565b60405180910390fd5b600560003373ffffffffffffffffffffffffffffffffffffffff1673ffffffffffffffffffffffffffffffffffffffff16815260200190815260200160002060008273ffffffffffffffffffffffffffffffffffffffff1673ffffffffffffffffffffffffffffffffffffffff16815260200190815260200160002060009054906101000a900460ff1615610ec7576040517f08c379a0000000000000000000000000000000000000000000000000000000008152600401610ebe9061178c565b60405180910390fd5b6001600560003373ffffffffffffffffffffffffffffffffffffffff1673ffffffffffffffffffffffffffffffffffffffff16815260200190815260200160002060008373ffffffffffffffffffffffffffffffffffffffff1673ffffffffffffffffffffffffffffffffffffffff16815260200190815260200160002060006101000a81548160ff02191690831515021790555050610d5a565b50505050565b60046020528060005260406000206000915054906101000a900460ff1681565b600080fd5b600080fd5b600073ffffffffffffffffffffffffffffffffffffffff82169050919050565b6000610fbd82610f92565b9050919050565b610fcd81610fb2565b8114610fd857600080fd5b50565b600081359050610fea81610fc4565b92915050565b60008115159050919050565b61100581610ff0565b811461101057600080fd5b50565b60008135905061102281610ffc565b92915050565b6000806040838503121561103f5761103e610f88565b5b600061104d85828601610fdb565b925050602061105e85828601611013565b9150509250929050565b60006020828403121561107e5761107d610f88565b5b600061108c84828501610fdb565b91505092915050565b61109e81610ff0565b82525050565b60006020820190506110b96000830184611095565b92915050565b600080604083850312156110d6576110d5610f88565b5b60006110e485828601610fdb565b92505060206110f585828601610fdb565b9150509250929050565b61110881610fb2565b82525050565b600060208201905061112360008301846110ff565b92915050565b6000819050919050565b61113c81611129565b811461114757600080fd5b50565b60008135905061115981611133565b92915050565b60006020828403121561117557611174610f88565b5b60006111838482850161114a565b91505092915050565b600060ff82169050919050565b6111a28161118c565b82525050565b60006060820190506111bd60008301866110ff565b6111ca6020830185611199565b6111d76040830184611199565b949350505050565b600080fd5b600080fd5b600080fd5b60008083601f840112611204576112036111df565b5b8235905067ffffffffffffffff811115611221576112206111e4565b5b60208301915083602082028301111561123d5761123c6111e9565b5b9250929050565b6000806020838503121561125b5761125a610f88565b5b600083013567ffffffffffffffff81111561127957611278610f8d565b5b611285858286016111ee565b92509250509250929050565b600082825260208201905092915050565b7f496e76616c696420416464726573730000000000000000000000000000000000600082015250565b60006112d8600f83611291565b91506112e3826112a2565b602082019050919050565b60006020820190508181036000830152611307816112cb565b9050919050565b7f4e6f7420416c6c6f77656420746f20766f746500000000000000000000000000600082015250565b6000611344601383611291565b915061134f8261130e565b602082019050919050565b6000602082019050818103600083015261137381611337565b9050919050565b7f4e487b7100000000000000000000000000000000000000000000000000000000600052601160045260246000fd5b60006113b48261118c565b915060ff82036113c7576113c661137a565b5b600182019050919050565b60006113dd8261118c565b91506113e88361118c565b9250828201905060ff8111156114015761140061137a565b5b92915050565b7f4e487b7100000000000000000000000000000000000000000000000000000000600052601260045260246000fd5b600061144182611129565b915061144c83611129565b92508261145c5761145b611407565b5b828204905092915050565b600061147282611129565b915061147d83611129565b925082820261148b81611129565b915082820484148315176114a2576114a161137a565b5b5092915050565b7f556e617574686f72697a65640000000000000000000000000000000000000000600082015250565b60006114df600c83611291565b91506114ea826114a9565b602082019050919050565b6000602082019050818103600083015261150e816114d2565b9050919050565b7f546f6f206d616e792070616e656c697374730000000000000000000000000000600082015250565b600061154b601283611291565b915061155682611515565b602082019050919050565b6000602082019050818103600083015261157a8161153e565b9050919050565b7f546865206164647265737320697320616c726561647920626c61636b6c69737460008201527f6564000000000000000000000000000000000000000000000000000000000000602082015250565b60006115dd602283611291565b91506115e882611581565b604082019050919050565b6000602082019050818103600083015261160c816115d0565b9050919050565b7f416c7265616479204120467269656e646c790000000000000000000000000000600082015250565b6000611649601283611291565b915061165482611613565b602082019050919050565b600060208201905081810360008301526116788161163c565b9050919050565b7f4e487b7100000000000000000000000000000000000000000000000000000000600052603260045260246000fd5b7f4f6e65206f66207468652061646472657373657320697320696e76616c696400600082015250565b60006116e4601f83611291565b91506116ef826116ae565b602082019050919050565b60006020820190508181036000830152611713816116d7565b9050919050565b7f4f6e65206f662074686520757365727320697320616c7265616479206120667260008201527f69656e646c790000000000000000000000000000000000000000000000000000602082015250565b6000611776602683611291565b91506117818261171a565b604082019050919050565b600060208201905081810360008301526117a581611769565b905091905056fea2646970667358221220e5a4d72ab38b5c138f2167d8d59971166549a8faf8ab3f9da9fe5f84dfb2efae64736f6c63430008130033",
  "linkReferences": {},
  "deployedLinkReferences": {}
}